:101033003F065B4F666D7D077F6FBF86DBCFE6EDB7
:10104300FD87FFEFFEFDFBF7EFDFBF7F00FFFFFF35
:0D105300FFFFFFFFFF000000000000000095
:101088007E00D3EF9400EE940040147D7D7C00ED4B
:0F1098001D70011CED4C70F7EF1F70E61E80E31A
:0110A7002226
:060FDD008B388A39893AC5
:100FE30012053BFFE4FEEFFDC374FF9D7480F864BC
:100FF300FF98503BEFC394145035EE64096030AD55
:10100300060EED90104793F580D2A1C2A1EF901088
:101013003393F580D2A0C2A0E4F580D2A0C2A0ABE6
:0F10230038AA39A93A8E82F583120554FF80B797
:01103200229B
:100B980075B0FE85B0385338F0E53864F060487FAA
:100BA8000A121088E53864F0603D85B038E53824CD
:100BB80082601B24C0601224E0600924F070147560
:100BC80039018012753902800D753903800875392D
:100BD8002B80037539FFE53864F0600885B0385319
:100BE80038F080F2AF392275B0FD85B0385338F04F
:100BF800E53864F060487F0A121088E53864F060D0
:100C08003D85B038E5382483601B24C0601224E099
:100C1800600924F070147539048012753905800D47
:100C2800753906800875392D80037539FFE53864F4
:100C3800F0600885B0385338F080F2AF392275B0CB
:100C4800FB85B0385338F0E53864F060487F0A1205
:100C58001088E53864F0603D85B038E53824856053
:100C68001B24C0601224E0600924F0701475390751
:100C78008012753908800D753909800875392A8000
:100C8800037539FFE53864F0600885B0385338F0EB
:100C980080F2AF392275B0F785B0385338F0E538AF
:100CA80064F060487F0A121088E53864F0603D857A
:100CB800B038E5382489601B24C0601224E060093C
:100CC80024F07014E4F539801275392E800D7539C9
:100CD8003D800875392F80037539FFE53864F06069
:0E0CE8000885B0385338F080F2AF39227FFF14
:010CF60022DB
:061060008B388A39893A41
:101066007F01E41205B4EFC394095015AB38AA39D1
:10107600A93AAE070F8E8275830074FF1205C680EB
:01108600E584
:011087002246
:0607EB008B388A39893ABF
:1007F100E4F551F552ED24D6604D24FD601F24FE31
:1008010060592404600302088CAB38AA39A93A90D4
:1008110000041206F512075112000A8066AB38AACD
:1008210039A93A900004120771C000C001C002C08A
:1008310003AB38AA39A93A1206D5D003D002D001A8
:10084100D000120006803CAB38AA39A93A900004C6
:100851001206F51207511200FB8028AB38AA39A9FC
:100861003A900004120771C000C001C002C003AB7E
:1008710038AA39A93A1206D5D003D002D001D00046
:100881001202048F568E558D548C53AF56AE55AD12
:1008910054AC5312034CEE3395E08F428E41F54038
:1008A100F53FE47B0AFAF9F8AF42AE41AD40AC3F07
:1008B100120624AF0374482551F8A607AF42AE4192
:1008C100AD40AC3FE47B0AFAF9F81206248F428E60
:1008D100418D408C3F0551E4FFFEFDFCAB42AA4136
:1008E100A940A83FC31206C470B8155174482551D8
:1008F100F8E6AB3CAA3DA93EAE5205528E82758305
:10090100001205C6E55170E2AF56AE55AD54AC5379
:1009110012034CAD07AC06EC120313A804A905AAF7
:1009210006AB07AF56AE55AD54AC531200067B0A69
:100931007AD77923783C1202A1600540030209FEAF
:10094100AB3CAA3DA93E1552855282758300740ABB
:10095100120581E4F5510552AF56AE55AD54AC5375
:1009610012034CAD07AC06EC120313A804A905AAA7
:1009710006AB07AF56AE55AD54AC53120006E4FBBF
:10098100FA79C878421200FB12034CEE3395E08FDE
:10099100468E45F544F543E47B0AFAF9F8AF46AED5
:1009A10045AD44AC43120624AF0374482551F8A663
:1009B10007AF46AE45AD44AC43E47B0AFAF9F81201
:1009C10006248F468E458D448C430551E4FFFEFD80
:1009D100FCAB46AA45A944A843C31206C470B81586
:1009E1005174482551F8E6AB3CAA3DA93EAE5205EB
:0D09F100528E827583001205C6E55170E23A
:0109FE0022D6
:1009FF0078247C007D007BFF7A10794F7E007F0981
:100A0F00120515E4F52DF52EF52F78307C00FD7BC2
:100A1F00FF7A107958FE7F08120515C2A7C2A6C229
:100A2F00A2C2A5C2A2C2A0C2A1120B988F22E52218
:100A3F0024D47003020AD124FE602F240424FA5018
:100A4F000D24F36046243E7003020B8C8074E52E58
:100A5F006003020B8C852223F52D052EE4F52FFB69
:100A6F007A007924121060020B8CE52D7008E52FA7
:100A7F006004152F80007424252FF8740A26F6AF12
:100A8F002F052F8F21752D01020B8C7B007A00799A
:100A9F0024121060753C00753D00753E247B007A72
:100AAF00007930AD231207EBE4F52EF52FF52DF578
:100ABF0033F532F531F530F537F536F535F53402D6
:100ACF000B8CE5247007E5227003020B8CE52D706B
:100ADF003AE52E25E025E02430F8120725E4FBFA4D
:100AEF00792078411200FBC004C005C006C007ACD6
:100AFF0022E4120318D003D002D001D00012000A52
:100B0F00E52E25E025E02430F88065E52E25E0254B
:100B1F00E02430F8C000120725C004C005C006C08D
:100B2F0007C3E52F9521FDE49400FCE41203138F16
:100B3F003F8E3E8D3D8C3C7F007E007D207C4112A0
:100B4F000E2CC004C005C006C007AC22E412031867
:100B5F00D003D002D001D000120204A804A905AA24
:100B6F0006AB07D007D006D005D00412000AD0007C
:100B7F001207A1AF2F052F74242FF8A6227B007A1E
:090B8F00007924120FDD020A387E
:100003000203B8E86480F8E933E83360110460F070
:10001300ED33EC337009E8FCE9FDEAFEEBFF220463
:1000230060DED3EB9FEA9EE99DE8C2E78CF0C2F75E
:1000330095F0400CE8CCF8E9CDF9EACEFAEBCFFB2A
:1000430012038385D0F05804700320D5B3E80470FD
:10005300075002B2D50203C292D5EC0460F7E4CC98
:10006300C0E0C398F8603B94186008400DD0E0FBF3
:1000730002039AE4FBFAC9FC8028E830E406E4C9E9
:10008300FBE4CAFCE830E305E4C9CACBFCE8540747
:100093006010F8C3E913F9EA13FAEB13FBEC13FC52
:1000A300D8F130F52FC3E49CFCEF9BFFEE9AFEEDF5
:1000B30099FDD0E0FBEF4E4D4C701222DB0302039F
:1000C300BFEC2CFCEF33FFEE33FEED33FDED30E7F9
:1000D300EB02039AEF2BFFEE3AFEED39FDD0E0FB86
:1000E30050130BBB00030203C2ED13FDEE13FEEF2F
:0800F30013FFEC13FC02039A59
:1000FB00EC4D6011E8497017ED33EC3304600DE4FF
:10010B00FCFFFEFD22E933E8330470F80203B8125A
:10011B00038358046009E4CC24815006285009025B
:10012B0003C22840030203BFC0E0EB4A7044B9800E
:10013B0006D0E0FB0203AEEF4E701CBD8008EBFF58
:10014B00EAFEE9FD80EBE98DF0A4FEE5F00201E4A7
:10015B00E9CDF9EAFEEBFFEF89F0A4FCE5F0CE89DF
:10016B00F0A42EFFE435F0CD89F0A42DFEE435F09C
:10017B008067EF4E7005BD80D780C3EF8BF0A4ACCA
:10018B00F0EE8BF0A42CFCE435F0F8EF8AF0A42C05
:10019B00E5F038FCE433CB8DF0A42CFCE5F03BF818
:1001AB00EE8AF0A42CFCE5F038F8E433CF89F0A408
:1001BB002CFCE5F038CF3400CE89F0A42FFFE5F00E
:1001CB003EFEE433C98DF0A42EFEE5F039CD8AF066
:1001DB00A42FFFE5F03EFEE43DFD33D0E0FB5007DE
:1001EB000BBB000F0203C2EC2CFCEF33FFEE33FE14
:0601FB00ED33FD02039A42
:100201000203C2EC5D046005E8590470030203B8FF
:10021100120383580460F6EC4860F2EC7004FDFEB2
:10022100FF22C860DB2481C85009C39860025006D0
:100231000203BF9850CAF582E9294B4A7005AB8287
:100241000203AE75F0007C1A7880C3EF9BEE9AED45
:1002510099400DC3EF9BFFEE9AFEED99FDE842F048
:10026100DC23ACF0D0E0FFD0E0FED0E0FDAB82209B
:10027100E7101BEB60BAEC2CFCEF33FFEE33FEED25
:1002810033FD02039AE803F830E705C0F075F0008A
:10029100EF2FFFEE33FEED33FD40B830E7C280AA09
:1002A10074F8CC6480CCC86480C8F582046043C310
:1002B100EB9FF5F0EA9E42F0E99D42F0E89C45F0A3
:1002C10060305018E5825FFFE582F42B5582FB50C8
:1002D100210ABA001D09B90019088016E5825BFBE5
:1002E100E582F42F5582FF50090EBE00050DBD00B9
:1002F100010CC3EB9FF5F0EA9E42F0E99D42F0E864
:0D0301009C45F06007CC4820E701B3EC22DA
:10030E0075F020800E75F010800575F0087D007E6A
:10031E00007F003392D530D5031206B6EC33401071
:10032E00EF33FFEE33FEED33FDEC33FCD5F0ED2273
:0E033E00E5F0247EA2D513CC92E7CDCEFF22AF
:10034C00EDD2E7CD33EC3392D524814006E4FFFEA9
:10035C00FDFC22FCE4CFCECDCC24E0501174FF8008
:10036C00EDC3CC13CCCD13CDCE13CECF13CF0470A5
:07037C00F030D5DE0206B6E9
:100E2C008F3B8E3A8D398C38E4FFFE7D807C3FAB56
:100E3C003BAA3AA939A8381202A17009AF3BAE3AC5
:100E4C00AD39AC3822AF3BAE3AAD39AC381203CD2C
:100E5C00FBAF3FAE3EAD3DAC3C1203CDFFBF010836
:100E6C00E4FFFE7D807C3F22EF64046022EB64048F
:100E7C00601DBB0127E4FFFEFDFCAB3FAA3EA93D74
:100E8C00A83C1202A160084006E4FFFEFDFC22749F
:100E9C00FFF53FF53EF53DF53C020F3AE4F540F524
:100EAC0041FFFEFDFCAB3BAA3AA939A8381202A1BE
:100EBC00504BAF3FAE3EAD3DAC3C12034C8E408F21
:100ECC0041AC40AD41EC120313C8ECC8C9EDC9CA22
:100EDC00EECACBEFCBAF3FAE3EAD3DAC3C12000605
:100EEC00E4FBFAF9F81202A170A5AF3BAE3AAD39AA
:100EFC00AC381203E78F3B8E3A8D398C38AF3BAE52
:100F0C003AAD39AC38120D2BAB3FAA3EA93DA83CEB
:100F1C001200FB120F7B8F3F8E3E8D3D8C3CE541CA
:100F2C0030E00B1203E78F3F8E3E8D3D8C3CAF3F84
:070F3C00AE3EAD3DAC3C22CE
:10038300E9D2E7C933E833F892D5EDD2E7CD33ECC0
:0703930033FC5002B2D52239
:10039A00EC30E7100FBF000C0EBE00080DBD0004C4
:1003AA000BEB6014A2D5EB13FCED92E7FD2274FF70
:1003BA00FCFDFEFF22E480F8A2D574FF13FC7D80C9
:0303CA00E480EFDD
:1003CD00ED33EC33601004700FED547F7005740243
:0A03DD0092E0227404220422E422BC
:1003E700ED33EC33600A047003BD8004ECB2E7FC24
:0103F70022E3
:100F430033DA929E35B16011377FE5FE392184890A
:100F53003AAEC3FF3C1D955B3D6358473E75FDF0BC
:100F63003F3172183F800000C2D50203C20203B8AA
:100F7300BD80FA50F30203BFED33EC330460F17B21
:100F83003B7AAA79B8783F1200FBED33EC3392D564
:100F9300247B5011A2D570DB500BED448024045008
:100FA30004A2D580CEEFFBEEFAEDF9ECF812034C78
:100FB300EFF582F404FC12031812000AC082900FAA
:100FC300437409120407ED33CC33D0F092D525F0E6
:0A0FD300A2D57001C313CC13FD2258
:100CF7003E9248DA3ECCCCCD3F2AAAAB400000005A
:100D07003F8000003F9837F03FB504F33FD744FCDE
:100D17003E3172173EB172173F0515913EDE5BD922
:100D2700D2008002C200EDD2E7F8CD33EC33047075
:100D37000BBD800592D50203C20203B840FBD31452
:100D470060F2F5F07C3FEE7A00C39496C8948B402E
:100D5700230AC89469C8941A401A0AC89468C894A0
:100D67001F40110AC8945AC89425400805F07A0014
:100D7700CDC2E7CDC0F08C428D438E448F45EA2328
:100D870023C0E02407F582E4340DF58312074112EE
:100D9700000AECC0E0EDC0E0EEC0E0EFC0E01207F3
:100DA70031A842A943AA44AB45120006D0E0FBD0C4
:100DB700E0FAD0E0F9D0E0B2E7F81202048C428DF5
:100DC700438E448F45900CF774031203F8A842A989
:100DD70043AA44AB451200FBD0E0600F2413F58211
:100DE700E4340DF58312074112000A8C428D438EBD
:100DF700448F45D0E0C3947FFDE49400FC120313B5
:100E07007B187A727931783F1200FBA842A943AA6E
:100E170044AB4512000A30000B7BD97A5B79DE7848
:050E27003E1200FB2259
:1003F800C0E0EFFBEEFAEDF9ECF81200FBD0E0F507
:10040800F0EFFBEEFAEDF9ECF8120731A3A3A3A382
:10041800E8C0E0E9C0E0EAC0E0EBC0E0C0F01200EC
:10042800FB120741A3A3A3A312000AD0F0D0E0FB5C
:0D043800D0E0FAD0E0F9D0E0F8D5F0D42201
:030000000210A843
:0C10A800787FE4F6D8FD7581560209FF40
:10044500E709F608DFFA8046E709F208DFFA803E99
:1004550088828C83E709F0A3DFFA8032E309F60886
:10046500DFFA8078E309F208DFFA807088828C83EE
:10047500E309F0A3DFFA806489828A83E0A3F608A2
:10048500DFFA805889828A83E0A3F208DFFA804C7C
:1004950080D280FA80C680D4806980F28033801053
:1004A50080A680EA809A80A880DA80E280CA8033BC
:1004B50089828A83ECFAE493A3C8C582C8CCC58334
:1004C500CCF0A3C8C582C8CCC583CCDFE9DEE78004
:1004D5000D89828A83E493A3F608DFF9ECFAA9F083
:1004E500EDFB2289828A83ECFAE0A3C8C582C8CCD9
:1004F500C583CCF0A3C8C582C8CCC583CCDFEADEF2
:10050500E880DB89828A83E493A3F208DFF980CC53
:1005150088F0EF60010E4E60C388F0ED2402B4044C
:100525000050B9F582EB2402B4040050AF232345F3
:060535008223900495737F
:10053B00BB010689828A83E0225002E722BBFE02BE
:09054B00E32289828A83E49322F1
:10055400BB010CE58229F582E5833AF583E022505C
:1005640006E92582F8E622BBFE06E92582F8E222A6
:0D057400E58229F582E5833AF583E49322C0
:10058100BB010FF8E58229F582E5833AF583E0287E
:10059100F0225009C58229F8E58226F622BBFE0920
:1005A100C58229F8E22582F222F8EA2583F583E95A
:0305B1009328226A
:1005B400BB010689828A83F0225002F722BBFE0126
:0205C400F32220
:1005C600F8BB010DE58229F582E5833AF583E8F06B
:1005D600225006E92582C8F622BBFE05E92582C817
:0205E600F222FF
:1005E80075F008758200EF2FFFEE33FECD33CDCCCA
:1005F80033CCC58233C5829BED9AEC99E58298404D
:100608000CF582EE9BFEED9AFDEC99FC0FD5F0D629
:10061800E4CEFBE4CDFAE4CCF9A88222B800C1B953
:100628000059BA002DEC8BF084CFCECDFCE5F0CB91
:10063800F97818EF2FFFEE33FEED33FDEC33FCEBCA
:1006480033FB10D703994004EB99FB0FD8E5E4F985
:10065800FA227818EF2FFFEE33FEED33FDEC33FC72
:10066800C933C910D7059BE99A4007EC9BFCE99A66
:10067800F90FD8E0E4C9FAE4CCFB2275F010EF2FAB
:10068800FFEE33FEED33FDCC33CCC833C810D707AB
:100698009BEC9AE899400AED9BFDEC9AFCE899F8E6
:0E06A8000FD5F0DAE4CDFBE4CCFAE4C8F92279
:0E06B600C3E49FFFE49EFEE49DFDE49CFC2255
:1006C400EB9FF5F0EA9E42F0E99D42F0E89C45F08C
:0106D4002203
:1006D500BB010789828A830207AD5005E9F8020745
:1006E50025BBFE05E9F80207B989828A830207312D
:1006F500BB010DE58229F582E5833AF5830207AD55
:100705005007E92582F8020725BBFE07E92582F88F
:100715000207B9E58229F582E5833AF583020731B7
:0C072500E6FC08E6FD08E6FE08E6FF2200
:10073100E493FC740193FD740293FE740393FF220E
:10074100E493F8740193F9740293FA740393FB220E
:10075100BB010789828A830207D25005E9F80207A3
:10076100C5BBFE05E9F80207DE89828A83020741DB
:10077100BB010DE58229F582E5833AF5830207D2B3
:100781005007E92582F80207C5BBFE07E92582F873
:100791000207DEE58229F582E5833AF58302074106
:0C07A100ECF608EDF608EEF608EFF62284
:0C07AD00E0FCA3E0FDA3E0FEA3E0FF22BF
:0C07B900E2FC08E2FD08E2FE08E2FF227C
:0D07C500E6FB08E6F908E6FA08E6CBF822A4
:0C07D200E0F8A3E0F9A3E0FAA3E0FB22AA
:0D07DE00E2FB08E2F908E2FA08E2CBF8229B
:00000001FF
